:100000000C9463000C948B000C948B000C94ED0307
:100010000C94ED030C94ED030C948B000C948B006A
:100020000C948B000C948B000C948B000C948B0024
:100030000C948B000C948B000C948B000C948B0014
:100040000C94A3030C948B000C9471030C944B033D
:100050000C948B000C948B000C948B000C948B00F4
:100060000C948B000C948B000000000024002700EF
:100070002A0000000008000201000003040700003D
:1000800000000000000000000000230026002900FE
:1000900000000000250028002B00040404040404D0
:1000A0000404020202020202030303030303010227
:1000B00004081020408001020408102001020408F6
:1000C00010206504DB0611241FBECFEFD8E0DEBF91
:1000D000CDBF11E0A0E0B1E0E4E1FEE002C0059098
:1000E0000D92AA3FB107D9F723E0AAEFB1E001C012
:1000F0001D92A530B207E1F710E0C2E6D0E004C0DF
:100100002197FE010E94F706C136D107C9F70E9468
:1001100010050C94FD060C940000AF92BF92CF9294
:10012000DF92EF92FF920F931F93CF93DF936C01B7
:100130007B018B01040F151FEB015E01AE18BF0898
:10014000C017D10759F06991D601ED91FC9101904A
:10015000F081E02DC6010995892B79F7C501DF9162
:10016000CF911F910F91FF90EF90DF90CF90BF90B4
:10017000AF900895FC01538D448D252F30E0842FDE
:1001800090E0821B930B541710F0CF9608950197BF
:100190000895FC01918D828D981761F0A28DAE0FAC
:1001A000BF2FB11D5D968C91928D9F5F9F73928F33
:1001B00090E008958FEF9FEF0895FC01918D828D5F
:1001C000981731F0828DE80FF11D858D90E008952C
:1001D0008FEF9FEF0895FC01918D228D892F90E084
:1001E000805C9F4F821B91098F739927089589E442
:1001F00092E00E94EB0021E0892B09F420E0822F9D
:10020000089580E090E0892B29F00E94F700811189
:100210000C9400000895FC01A48DA80FB92FB11D06
:10022000A35ABF4F2C91848D90E001968F7399272C
:10023000848FA689B7892C93A089B1898C9183700A
:1002400080648C93938D848D981306C00288F38903
:10025000E02D80818F7D80830895EF92FF920F9330
:100260001F93CF93DF93EC0181E0888F9B8D8C8D62
:1002700098131AC0E889F989808185FF15C09FB756
:10028000F894EE89FF896083E889F9898081837019
:10029000806480839FBF81E090E0DF91CF911F91C8
:1002A0000F91FF90EF900895F62E0B8D10E00F5FE9
:1002B0001F4F0F731127E02E8C8D8E110CC00FB6BF
:1002C00007FCFACFE889F989808185FFF5CFCE0157
:1002D0000E940B01F1CFEB8DEC0FFD2FF11DE35AC6
:1002E000FF4FF0829FB7F8940B8FEA89FB898081DA
:1002F0008062CFCFCF93DF93EC01888D8823B9F054
:10030000AA89BB89E889F9898C9185FD03C0808120
:1003100086FD0DC00FB607FCF7CF8C9185FFF2CF9D
:10032000808185FFEDCFCE010E940B01E9CFDF91E7
:10033000CF910895833081F028F4813099F0823094
:10034000A9F008958730A9F08830C9F08430B1F45D
:10035000809180008F7D03C0809180008F77809393
:100360008000089584B58F7784BD089584B58F7D0E
:10037000FBCF8091B0008F778093B000089580917B
:10038000B0008F7DF9CF1F93CF93DF93282F30E0FC
:10039000F901EE58FF4F8491F901E255FF4FD491D6
:1003A000F901E656FF4FC491CC23A9F0162F811115
:1003B0000E949A01EC2FF0E0EE0FFF1FE057FF4F75
:1003C000A591B4918FB7F894EC91111108C0D09514
:1003D000DE23DC938FBFDF91CF911F910895DE2B39
:1003E000F8CFCF93DF9390E0FC01E255FF4F2491CB
:1003F00086569F4FFC0184918823D1F090E0880FAE
:10040000991FFC01E859FF4FA591B491FC01E057F9
:10041000FF4FC591D49161110EC09FB7F8948C9194
:10042000E22FE0958E238C932881E223E8839FBFFF
:10043000DF91CF9108958FB7F894EC91E22BEC9374
:100440008FBFF6CF3FB7F89480913F029091400262
:10045000A0914102B091420226B5A89B05C02F3F52
:1004600019F00196A11DB11D3FBFBA2FA92F982FDA
:100470008827BC01CD01620F711D811D911D42E0D5
:10048000660F771F881F991F4A95D1F708958F929D
:100490009F92AF92BF92CF92DF92EF92FF924B0169
:1004A0005C010E9422026B017C010E9422026C19F5
:1004B0007D098E099F09683E734081059105A8F367
:1004C00021E0821A9108A108B10888EEC80E83E0E5
:1004D000D81EE11CF11C81149104A104B10429F778
:1004E000FF90EF90DF90CF90BF90AF909F908F9054
:1004F000089520914502309146022817390771F47A
:100500009091430280914402981741F0E091430298
:10051000F0E0E650FE4F808190E008958FEF9FEF6E
:1005200008950895EF92FF920F931F93CF93DF9357
:10053000DC015C96ED90FC905D97E114F10479F498
:1005400081E090E013969C938E93129790E080E068
:10055000DF91CF911F910F91FF90EF9008955196E9
:10056000ED91FC91529750968C915097982F9095C1
:100570000FB75E962C915E97122F127021FD609539
:10058000F8942081112319F1282B2083E70121976A
:10059000F1F728E0462F50E0308160FF1AC0382B79
:1005A0003083E7012197F1F7BA01759567952150DE
:1005B00089F7112381F08081892380830FBF5C96A6
:1005C0008D919C910197F1F781E090E0C1CF2923B3
:1005D000DCCF3923E5CF9081892BEFCF20914502E5
:1005E000309146022817390761F480914402209126
:1005F000430290E0805C9F4F821B91098F73992783
:10060000089590E080E008952091450230914602DF
:1006100028173907B9F49091430280914402981742
:1006200089F0E0914302F0E0E650FE4F8081209196
:10063000430230E02F5F3F4F2F7333272093430255
:1006400090E008958FEF9FEF089590E080E0089587
:10065000FB0101900020E9F73197AF01461B570BD2
:10066000DC01ED91FC910280F381E02D09940F9360
:100670001F93CF93DF93EC010E9428038C0163EC5E
:1006800071E0CE010E942803800F911FDF91CF916E
:100690001F910F9108951F920F920FB60F92112480
:1006A0002F933F934F935F936F937F938F939F937A
:1006B000AF93BF93EF93FF9389E492E00E940B0105
:1006C000FF91EF91BF91AF919F918F917F916F912A
:1006D0005F914F913F912F910F900FBE0F901F9000
:1006E00018951F920F920FB60F9211242F938F938C
:1006F0009F93EF93FF93E0915902F0915A0280810A
:10070000E0915F02F091600282FD1BC090818091B8
:1007100062028F5F8F7320916302821741F0E09134
:100720006202F0E0E75BFD4F958F80936202FF91DC
:10073000EF919F918F912F910F900FBE0F901F906F
:1007400018958081F4CF1F920F920FB60F9211244B
:100750002F933F938F939F93AF93BF9380913B02CF
:1007600090913C02A0913D02B0913E0230913A023C
:1007700023E0230F2D3758F50196A11DB11D2093BD
:100780003A0280933B0290933C02A0933D02B093C7
:100790003E0280913F0290914002A0914102B091AF
:1007A00042020196A11DB11D80933F029093400229
:1007B000A0934102B0934202BF91AF919F918F915C
:1007C0003F912F910F900FBE0F901F90189526E824
:1007D000230F0296A11DB11DD2CF1F920F920FB60B
:1007E0000F9211242F933F934F935F936F937F93B7
:1007F0008F939F93AF93BF93EF93FF93E091450245
:10080000F0914602309749F0A685B7858585968D8B
:1008100091FF14C09C918923A1F4FF91EF91BF91A6
:10082000AF919F918F917F916F915F914F913F9188
:100830002F910F900FBE0F901F9018959C918923B8
:1008400061F7A389B4899C918589809589238C93CC
:10085000868997890197F1F7608D718DA685B78597
:10086000558538E020E0CB010197F1F7822F90E029
:1008700095958795282F4C91452309F02068315094
:1008800091F7868D81FD20958091440290E001963C
:100890008F73992730914302381799F0A091440241
:1008A000B0E0A650BE4F2C9380934402828D938D6E
:1008B0000197F1F7A389B4898C919589892B8C9341
:1008C000ACCF868D8160868FF1CF10924C02109252
:1008D0004B0288EE93E0A0E0B0E080934D0290934D
:1008E0004E02A0934F02B093500224E031E03093C7
:1008F0004A022093490225EC30E0309356022093BF
:10090000550224EC30E0309358022093570220EC3B
:1009100030E030935A022093590221EC30E03093BA
:100920005C0220935B0222EC30E030935E02209365
:100930005D0226EC30E03093600220935F0210925B
:100940006202109263021092640210926502109289
:10095000E9021092E8028093EA029093EB02A093DE
:10096000EC02B093ED0286E191E09093E702809370
:10097000E6021092FD021092FC021092FF02109209
:10098000FE021092010310920003109203031092D2
:100990000203609104036E7F6D7F6093040366958C
:1009A000617081E068278AE00E94C30161E08AE00B
:1009B0000E94F101E8EBF0E0E491E093F602E4EA52
:1009C000F0E0E491F0E0EE0FFF1FE057FF4F85915C
:1009D00094919093F8028093F70260E089E00E947E
:1009E000F1018091040381FD04C061E089E00E946F
:1009F000C30189E08093F202E7EBF0E0E491E09339
:100A0000F302E3EAF0E0E491F0E0EE0FFF1FEA57B3
:100A1000FF4F859194919093F5028093F40208958D
:100A2000789484B5826084BD84B5816084BD85B5C9
:100A3000826085BD85B5816085BD80916E008160D5
:100A400080936E001092810080918100826080937B
:100A5000810080918100816080938100809180007D
:100A60008160809380008091B10084608093B100A8
:100A70008091B00081608093B00080917A008460A2
:100A800080937A0080917A00826080937A008091CE
:100A90007A00816080937A0080917A0080688093E8
:100AA0007A001092C100109201031092000310927C
:100AB000FF021092FE021092FD021092FC028DE9DC
:100AC00091E090930303809302039091F202963198
:100AD00008F047C02DEB30E03093FD022093FC027C
:100AE0002BE931E03093FF022093FE022CE231E04B
:100AF00030930103209300032091680084E0983034
:100B000048F031E09E3008F430E081E001C0880F09
:100B10003A95EAF7822B809368002DE630E0983012
:100B200050F02BE630E09E3030F02CE630E096318D
:100B300010F030E020E03093FA022093F902292FE0
:100B400030E0983008F0FFC081E001C0880F9A952E
:100B5000EAF78093FB0280910203909103030197CF
:100B6000F1F78091000390910103892B49F1E09105
:100B70004502F091460282E0E63EF80709F130971F
:100B800039F0A389B4899C918589809589238C93B8
:100B9000809104038E7F809304031092440210928C
:100BA000430286EE92E09093460280934502E091E4
:100BB000F902F091FA0280819091FB02892B8083E7
:100BC000E0915902F0915A0282E08083E09155024F
:100BD000F09156021082E0915702F09158028FEC8A
:100BE000808310926102E0915D02F0915E0286E0E6
:100BF0008083E0915B02F0915C0280818061808360
:100C0000E0915B02F0915C02808188608083E091DA
:100C10005B02F0915C02808180688083E0915B02DE
:100C2000F0915C0280818F7D808361E088E00E948A
:100C3000F10160E082E00E94F10161E08BE00E943E
:100C4000F101C4E7D0E000EB10E09CE9E92E90E070
:100C5000F92E20E0C22E20E0D22E88248394912CFD
:100C6000FE018491F801B490F701A490AA2009F440
:100C700077C081110E949A01EA2DF0E0EE0FFF1F6C
:100C8000EA57FF4FA591B4918C91B82209F468C03E
:100C9000A0904702B090480261E088E00E94C30142
:100CA00061E08BE00E94C301AB2809F040C064E220
:100CB00071E089E492E00E94370368E371E089E41F
:100CC00092E00E94370361E571E086EE92E00E94B7
:100CD000370364EF71E080E090E00E9447026BE52B
:100CE00071E086EE92E00E94370364EF71E080E0ED
:100CF00090E00E94470268E771E086EE92E00E9471
:100D0000370368EC70E080E090E00E9447026AE9F7
:100D100071E086EE92E00E94370360E273E080E0CB
:100D200090E00E9447029092480280924702C114CC
:100D3000D10409F495CF0E94F700882309F490CFDD
:100D40000E9400008DCF9E3040F42850310981E090
:100D500001C0880F2A95EAF7FCCE2E503109F7CF53
:100D600060E088E00E94C30160E08BE00E94C30164
:100D700080914702909148020197C9F666EC71E0B4
:100D800089E492E00E94370368ED71E086EE92E01C
:100D90000E9437036DEE71E086EE92E00E94370309
:100DA00068EE73E080E090E00E94470210924802F3
:100DB00010924702BCCF86E191E09093E7028093C6
:100DC000E6028091450290914602865E924071F45F
:100DD000E091F902F091FA0290818091FB028095F6
:100DE0008923808310924602109245020895EE0FE7
:100DF000FF1F0590F491E02D099410E0C2E6D0E0C9
:100E000004C0FE010E94F7062196C336D107C9F738
:040E1000F894FFCF84
:100E1400000000002D018D00BA007A01EB00C9002A
:100E2400DD000000000092028D0025039102EE0215
:100E3400040379024D6F74696F6E20646574656391
:100E4400746564210D0A0A00416C657274696E67E9
:100E54002041646D696E2F4F776E6572200D0A0A0A
:100E64000041542B434D47463D310041542B434DE3
:100E740047533D22596F75722050686F6E65204E3E
:100E8400756D626572220D00536F6D656F6E65201E
:100E9400697320547279696E6720746F2042726599
:100EA400616B20494E200D0A0A0053756363657314
:100EB40066756C6C792053656E74204D657373612F
:100EC40067652066726F6D2047534D204D6F6475C2
:100ED4006C65200D0A004D6F74696F6E20656E6439
:100EE400656421200D0A0A0041542B434E4D493DAF
:100EF400322C322C302C302C300D0A0A004D657304
:0A0F0400736167652053656E740089
:00000001FF
